{"bytecode":"608060405234801561001057600080fd5b50604051610a75380380610a7583398101604081905261002f9161006f565b600380546001600160a01b039092166001600160a01b03199283161790556000805490911633908117825581526004602052604090206103e8905561009f565b60006020828403121561008157600080fd5b81516001600160a01b038116811461009857600080fd5b9392505050565b6109c7806100ae6000396000f3fe60806040526004361061009c5760003560e01c80637b428ed5116100645780637b428ed51461015857806388ab139a1461017a57806398d5fdca14610190578063a392c223146101a5578063a9059cbb146101ad578063f2a40db8146101cd57600080fd5b806309bc33a7146100a157806327e235e3146100c95780633ccfd60b146100f65780636e5b6b2814610100578063741bef1a14610120575b600080fd5b3480156100ad57600080fd5b506100b66101ed565b6040519081526020015b60405180910390f35b3480156100d557600080fd5b506100b66100e4366004610739565b60046020526000908152604090205481565b6100fe61022a565b005b34801561010c57600080fd5b506100b661011b36600461075b565b610321565b34801561012c57600080fd5b50600354610140906001600160a01b031681565b6040516001600160a01b0390911681526020016100c0565b34801561016457600080fd5b5061016d610355565b6040516100c09190610774565b34801561018657600080fd5b506100b660025481565b34801561019c57600080fd5b506100b66103b7565b6100fe61044e565b3480156101b957600080fd5b506100fe6101c83660046107c1565b610580565b3480156101d957600080fd5b506101406101e836600461075b565b610679565b60006802b5e3af16b1880000816102026103b7565b9050670de0b6b3a7640000816102188285610801565b6102229190610820565b935050505090565b6000546001600160a01b0316331461027c5760405162461bcd60e51b815260206004820152601060248201526f3cb7ba93b932903737ba1037bbb732b960811b60448201526064015b60405180910390fd5b60405133904780156108fc02916000818181858888f193505050501580156102a8573d6000803e3d6000fd5b5060005b600154811015610300576000600182815481106102cb576102cb610842565b60009182526020808320909101546001600160a01b0316825260049052604081205550806102f881610858565b9150506102ac565b50604080516000815260208101918290525161031e916001916106a3565b50565b60008061032c6103b7565b90506000670de0b6b3a76400006103438584610801565b61034d9190610820565b949350505050565b606060018054806020026020016040519081016040528092919081815260200182805480156103ad57602002820191906000526020600020905b81546001600160a01b0316815260019091019060200180831161038f575b5050505050905090565b600080600360009054906101000a90046001600160a01b03166001600160a01b031663feaf968c6040518163ffffffff1660e01b815260040160a060405180830381865afa15801561040d573d6000803e3d6000fd5b505050506040513d601f19601f82011682018060405250810190610431919061088d565b505050915050806402540be40061044891906108dd565b91505090565b60016802b5e3af16b18800008061046434610321565b10156104b25760405162461bcd60e51b815260206004820152601c60248201527f596f75206e65656420746f20646f6e617465206d6f72652045544821000000006044820152606401610273565b33600090815260046020526040812080543492906104d1908490610962565b90915550600090505b600154811015610530576000600182815481106104f9576104f9610842565b6000918252602090912001546001600160a01b031690503381141561051d57600093505b508061052881610858565b9150506104da565b50816001141561057c576001805480820182556000919091527fb10e2d527612073b26eecdfd717e6a320cf44b4afac2b0732d9fcbe2b7fa0cf60180546001600160a01b031916331790555b5050565b336000908152600460205260409020548111156105d55760405162461bcd60e51b81526020600482015260136024820152726e6f7420656e6f7567682062616c616e63657360681b6044820152606401610273565b336001600160a01b03831614156106245760405162461bcd60e51b81526020600482015260136024820152726e6f7420656e6f7567682062616c616e63657360681b6044820152606401610273565b336000908152600460205260408120805483929061064390849061097a565b90915550506001600160a01b03821660009081526004602052604081208054839290610670908490610962565b90915550505050565b6001818154811061068957600080fd5b6000918252602090912001546001600160a01b0316905081565b8280548282559060005260206000209081019282156106f8579160200282015b828111156106f857825182546001600160a01b0319166001600160a01b039091161782556020909201916001909101906106c3565b50610704929150610708565b5090565b5b808211156107045760008155600101610709565b80356001600160a01b038116811461073457600080fd5b919050565b60006020828403121561074b57600080fd5b6107548261071d565b9392505050565b60006020828403121561076d57600080fd5b5035919050565b6020808252825182820181905260009190848201906040850190845b818110156107b55783516001600160a01b031683529284019291840191600101610790565b50909695505050505050565b600080604083850312156107d457600080fd5b6107dd8361071d565b946020939093013593505050565b634e487b7160e01b600052601160045260246000fd5b600081600019048311821515161561081b5761081b6107eb565b500290565b60008261083d57634e487b7160e01b600052601260045260246000fd5b500490565b634e487b7160e01b600052603260045260246000fd5b600060001982141561086c5761086c6107eb565b5060010190565b805169ffffffffffffffffffff8116811461073457600080fd5b600080600080600060a086880312156108a557600080fd5b6108ae86610873565b94506020860151935060408601519250606086015191506108d160808701610873565b90509295509295909350565b60006001600160ff1b0381841382841380821686840486111615610903576109036107eb565b600160ff1b6000871282811687830589121615610922576109226107eb565b6000871292508782058712848416161561093e5761093e6107eb565b87850587128184161615610954576109546107eb565b505050929093029392505050565b60008219821115610975576109756107eb565b500190565b60008282101561098c5761098c6107eb565b50039056fea2646970667358221220e87e14cf773fa6d1c9002245f26983278a1f09c0853fb1c4f193046d6598e94264736f6c634300080a0033","bytecodeSha1":"078c24dbb4b4e0a3508b1246b3e5dfe89b57ee7f","type":"contract","abi":[{"inputs":[{"internalType":"address","name":"_priceFeed","type":"address"}],"stateMutability":"nonpayable","type":"constructor","name":"constructor"},{"inputs":[{"internalType":"uint256","name":"","type":"uint256"}],"name":"accounts","outputs":[{"internalType":"address","name":"","type":"address"}],"stateMutability":"view","type":"function"},{"inputs":[{"internalType":"address","name":"","type":"address"}],"name":"balances","outputs":[{"internalType":"uint256","name":"","type":"uint256"}],"stateMutability":"view","type":"function"},{"inputs":[],"name":"depositToSC","outputs":[],"stateMutability":"payable","type":"function"},{"inputs":[{"internalType":"uint256","name":"ethAmouth","type":"uint256"}],"name":"getConversionRate","outputs":[{"internalType":"uint256","name":"","type":"uint256"}],"stateMutability":"view","type":"function"},{"inputs":[],"name":"getEntranceFee","outputs":[{"internalType":"uint256","name":"","type":"uint256"}],"stateMutability":"view","type":"function"},{"inputs":[],"name":"getListAccountAndBalaces","outputs":[{"internalType":"address[]","name":"","type":"address[]"}],"stateMutability":"view","type":"function"},{"inputs":[],"name":"getPrice","outputs":[{"internalType":"uint256","name":"","type":"uint256"}],"stateMutability":"view","type":"function"},{"inputs":[],"name":"priceFeed","outputs":[{"internalType":"contract AggregatorV3Interface","name":"","type":"address"}],"stateMutability":"view","type":"function"},{"inputs":[{"internalType":"address","name":"receiver","type":"address"},{"internalType":"uint256","name":"amt","type":"uint256"}],"name":"transfer","outputs":[],"stateMutability":"nonpayable","type":"function"},{"inputs":[],"name":"usdEntryFee","outputs":[{"internalType":"uint256","name":"","type":"uint256"}],"stateMutability":"view","type":"function"},{"inputs":[],"name":"withdraw","outputs":[],"stateMutability":"payable","type":"function"}],"compiler":{"version":"0.8.10+commit.fc410830","evm_version":"istanbul","optimizer":{"enabled":true,"runs":200}},"contractName":"SimpleBank","language":"Solidity","natspec":{"methods":{},"kind":"dev","version":1},"opcodes":"PUSH1 0x80 PUSH1 0x40 MSTORE PUSH1 0x4 CALLDATASIZE LT PUSH2 0x9C JUMPI PUSH1 0x0 CALLDATALOAD PUSH1 0xE0 SHR DUP1 PUSH4 0x7B428ED5 GT PUSH2 0x64 JUMPI DUP1 PUSH4 0x7B428ED5 EQ PUSH2 0x158 JUMPI DUP1 PUSH4 0x88AB139A EQ PUSH2 0x17A JUMPI DUP1 PUSH4 0x98D5FDCA EQ PUSH2 0x190 JUMPI DUP1 PUSH4 0xA392C223 EQ PUSH2 0x1A5 JUMPI DUP1 PUSH4 0xA9059CBB EQ PUSH2 0x1AD JUMPI DUP1 PUSH4 0xF2A40DB8 EQ PUSH2 0x1CD JUMPI PUSH1 0x0 DUP1 REVERT JUMPDEST DUP1 PUSH4 0x9BC33A7 EQ PUSH2 0xA1 JUMPI DUP1 PUSH4 0x27E235E3 EQ PUSH2 0xC9 JUMPI DUP1 PUSH4 0x3CCFD60B EQ PUSH2 0xF6 JUMPI DUP1 PUSH4 0x6E5B6B28 EQ PUSH2 0x100 JUMPI DUP1 PUSH4 0x741BEF1A EQ PUSH2 0x120 JUMPI JUMPDEST PUSH1 0x0 DUP1 REVERT JUMPDEST CALLVALUE DUP1 ISZERO PUSH2 0xAD JUMPI PUSH1 0x0 DUP1 REVERT JUMPDEST POP PUSH2 0xB6 PUSH2 0x1ED JUMP JUMPDEST PUSH1 0x40 MLOAD SWAP1 DUP2 MSTORE PUSH1 0x20 ADD JUMPDEST PUSH1 0x40 MLOAD DUP1 SWAP2 SUB SWAP1 RETURN JUMPDEST CALLVALUE DUP1 ISZERO PUSH2 0xD5 JUMPI PUSH1 0x0 DUP1 REVERT JUMPDEST POP PUSH2 0xB6 PUSH2 0xE4 CALLDATASIZE PUSH1 0x4 PUSH2 0x739 JUMP JUMPDEST PUSH1 0x4 PUSH1 0x20 MSTORE PUSH1 0x0 SWAP1 DUP2 MSTORE PUSH1 0x40 SWAP1 KECCAK256 SLOAD DUP2 JUMP JUMPDEST PUSH2 0xFE PUSH2 0x22A JUMP JUMPDEST STOP JUMPDEST CALLVALUE DUP1 ISZERO PUSH2 0x10C JUMPI PUSH1 0x0 DUP1 REVERT JUMPDEST POP PUSH2 0xB6 PUSH2 0x11B CALLDATASIZE PUSH1 0x4 PUSH2 0x75B JUMP JUMPDEST PUSH2 0x321 JUMP JUMPDEST CALLVALUE DUP1 ISZERO PUSH2 0x12C JUMPI PUSH1 0x0 DUP1 REVERT JUMPDEST POP PUSH1 0x3 SLOAD PUSH2 0x140 SWAP1 PUSH1 0x1 PUSH1 0x1 PUSH1 0xA0 SHL SUB AND DUP2 JUMP JUMPDEST PUSH1 0x40 MLOAD PUSH1 0x1 PUSH1 0x1 PUSH1 0xA0 SHL SUB SWAP1 SWAP2 AND DUP2 MSTORE PUSH1 0x20 ADD PUSH2 0xC0 JUMP JUMPDEST CALLVALUE DUP1 ISZERO PUSH2 0x164 JUMPI PUSH1 0x0 DUP1 REVERT JUMPDEST POP PUSH2 0x16D PUSH2 0x355 JUMP JUMPDEST PUSH1 0x40 MLOAD PUSH2 0xC0 SWAP2 SWAP1 PUSH2 0x774 JUMP JUMPDEST CALLVALUE DUP1 ISZERO PUSH2 0x186 JUMPI PUSH1 0x0 DUP1 REVERT JUMPDEST POP PUSH2 0xB6 PUSH1 0x2 SLOAD DUP2 JUMP JUMPDEST CALLVALUE DUP1 ISZERO PUSH2 0x19C JUMPI PUSH1 0x0 DUP1 REVERT JUMPDEST POP PUSH2 0xB6 PUSH2 0x3B7 JUMP JUMPDEST PUSH2 0xFE PUSH2 0x44E JUMP JUMPDEST CALLVALUE DUP1 ISZERO PUSH2 0x1B9 JUMPI PUSH1 0x0 DUP1 REVERT JUMPDEST POP PUSH2 0xFE PUSH2 0x1C8 CALLDATASIZE PUSH1 0x4 PUSH2 0x7C1 JUMP JUMPDEST PUSH2 0x580 JUMP JUMPDEST CALLVALUE DUP1 ISZERO PUSH2 0x1D9 JUMPI PUSH1 0x0 DUP1 REVERT JUMPDEST POP PUSH2 0x140 PUSH2 0x1E8 CALLDATASIZE PUSH1 0x4 PUSH2 0x75B JUMP JUMPDEST PUSH2 0x679 JUMP JUMPDEST PUSH1 0x0 PUSH9 0x2B5E3AF16B1880000 DUP2 PUSH2 0x202 PUSH2 0x3B7 JUMP JUMPDEST SWAP1 POP PUSH8 0xDE0B6B3A7640000 DUP2 PUSH2 0x218 DUP3 DUP6 PUSH2 0x801 JUMP JUMPDEST PUSH2 0x222 SWAP2 SWAP1 PUSH2 0x820 JUMP JUMPDEST SWAP4 POP POP POP POP SWAP1 JUMP JUMPDEST PUSH1 0x0 SLOAD PUSH1 0x1 PUSH1 0x1 PUSH1 0xA0 SHL SUB AND CALLER EQ PUSH2 0x27C JUMPI PUSH1 0x40 MLOAD PUSH3 0x461BCD PUSH1 0xE5 SHL DUP2 MSTORE PUSH1 0x20 PUSH1 0x4 DUP3 ADD MSTORE PUSH1 0x10 PUSH1 0x24 DUP3 ADD MSTORE PUSH16 0x3CB7BA93B932903737BA1037BBB732B9 PUSH1 0x81 SHL PUSH1 0x44 DUP3 ADD MSTORE PUSH1 0x64 ADD JUMPDEST PUSH1 0x40 MLOAD DUP1 SWAP2 SUB SWAP1 REVERT JUMPDEST PUSH1 0x40 MLOAD CALLER SWAP1 SELFBALANCE DUP1 ISZERO PUSH2 0x8FC MUL SWAP2 PUSH1 0x0 DUP2 DUP2 DUP2 DUP6 DUP9 DUP9 CALL SWAP4 POP POP POP POP ISZERO DUP1 ISZERO PUSH2 0x2A8 JUMPI RETURNDATASIZE PUSH1 0x0 DUP1 RETURNDATACOPY RETURNDATASIZE PUSH1 0x0 REVERT JUMPDEST POP PUSH1 0x0 JUMPDEST PUSH1 0x1 SLOAD DUP2 LT ISZERO PUSH2 0x300 JUMPI PUSH1 0x0 PUSH1 0x1 DUP3 DUP2 SLOAD DUP2 LT PUSH2 0x2CB JUMPI PUSH2 0x2CB PUSH2 0x842 JUMP JUMPDEST PUSH1 0x0 SWAP2 DUP3 MSTORE PUSH1 0x20 DUP1 DUP4 KECCAK256 SWAP1 SWAP2 ADD SLOAD PUSH1 0x1 PUSH1 0x1 PUSH1 0xA0 SHL SUB AND DUP3 MSTORE PUSH1 0x4 SWAP1 MSTORE PUSH1 0x40 DUP2 KECCAK256 SSTORE POP DUP1 PUSH2 0x2F8 DUP2 PUSH2 0x858 JUMP JUMPDEST SWAP2 POP POP PUSH2 0x2AC JUMP JUMPDEST POP PUSH1 0x40 DUP1 MLOAD PUSH1 0x0 DUP2 MSTORE PUSH1 0x20 DUP2 ADD SWAP2 DUP3 SWAP1 MSTORE MLOAD PUSH2 0x31E SWAP2 PUSH1 0x1 SWAP2 PUSH2 0x6A3 JUMP JUMPDEST POP JUMP JUMPDEST PUSH1 0x0 DUP1 PUSH2 0x32C PUSH2 0x3B7 JUMP JUMPDEST SWAP1 POP PUSH1 0x0 PUSH8 0xDE0B6B3A7640000 PUSH2 0x343 DUP6 DUP5 PUSH2 0x801 JUMP JUMPDEST PUSH2 0x34D SWAP2 SWAP1 PUSH2 0x820 JUMP JUMPDEST SWAP5 SWAP4 POP POP POP POP JUMP JUMPDEST PUSH1 0x60 PUSH1 0x1 DUP1 SLOAD DUP1 PUSH1 0x20 MUL PUSH1 0x20 ADD PUSH1 0x40 MLOAD SWAP1 DUP2 ADD PUSH1 0x40 MSTORE DUP1 SWAP3 SWAP2 SWAP1 DUP2 DUP2 MSTORE PUSH1 0x20 ADD DUP3 DUP1 SLOAD DUP1 ISZERO PUSH2 0x3AD JUMPI PUSH1 0x20 MUL DUP3 ADD SWAP2 SWAP1 PUSH1 0x0 MSTORE PUSH1 0x20 PUSH1 0x0 KECCAK256 SWAP1 JUMPDEST DUP2 SLOAD PUSH1 0x1 PUSH1 0x1 PUSH1 0xA0 SHL SUB AND DUP2 MSTORE PUSH1 0x1 SWAP1 SWAP2 ADD SWAP1 PUSH1 0x20 ADD DUP1 DUP4 GT PUSH2 0x38F JUMPI JUMPDEST POP POP POP POP POP SWAP1 POP SWAP1 JUMP JUMPDEST PUSH1 0x0 DUP1 PUSH1 0x3 PUSH1 0x0 SWAP1 SLOAD SWAP1 PUSH2 0x100 EXP SWAP1 DIV PUSH1 0x1 PUSH1 0x1 PUSH1 0xA0 SHL SUB AND PUSH1 0x1 PUSH1 0x1 PUSH1 0xA0 SHL SUB AND PUSH4 0xFEAF968C PUSH1 0x40 MLOAD DUP2 PUSH4 0xFFFFFFFF AND PUSH1 0xE0 SHL DUP2 MSTORE PUSH1 0x4 ADD PUSH1 0xA0 PUSH1 0x40 MLOAD DUP1 DUP4 SUB DUP2 DUP7 GAS STATICCALL ISZERO DUP1 ISZERO PUSH2 0x40D JUMPI RETURNDATASIZE PUSH1 0x0 DUP1 RETURNDATACOPY RETURNDATASIZE PUSH1 0x0 REVERT JUMPDEST POP POP POP POP PUSH1 0x40 MLOAD RETURNDATASIZE PUSH1 0x1F NOT PUSH1 0x1F DUP3 ADD AND DUP3 ADD DUP1 PUSH1 0x40 MSTORE POP DUP2 ADD SWAP1 PUSH2 0x431 SWAP2 SWAP1 PUSH2 0x88D JUMP JUMPDEST POP POP POP SWAP2 POP POP DUP1 PUSH5 0x2540BE400 PUSH2 0x448 SWAP2 SWAP1 PUSH2 0x8DD JUMP JUMPDEST SWAP2 POP POP SWAP1 JUMP JUMPDEST PUSH1 0x1 PUSH9 0x2B5E3AF16B1880000 DUP1 PUSH2 0x464 CALLVALUE PUSH2 0x321 JUMP JUMPDEST LT ISZERO PUSH2 0x4B2 JUMPI PUSH1 0x40 MLOAD PUSH3 0x461BCD PUSH1 0xE5 SHL DUP2 MSTORE PUSH1 0x20 PUSH1 0x4 DUP3 ADD MSTORE PUSH1 0x1C PUSH1 0x24 DUP3 ADD MSTORE PUSH32 0x596F75206E65656420746F20646F6E617465206D6F7265204554482100000000 PUSH1 0x44 DUP3 ADD MSTORE PUSH1 0x64 ADD PUSH2 0x273 JUMP JUMPDEST CALLER PUSH1 0x0 SWAP1 DUP2 MSTORE PUSH1 0x4 PUSH1 0x20 MSTORE PUSH1 0x40 DUP2 KECCAK256 DUP1 SLOAD CALLVALUE SWAP3 SWAP1 PUSH2 0x4D1 SWAP1 DUP5 SWAP1 PUSH2 0x962 JUMP JUMPDEST SWAP1 SWAP2 SSTORE POP PUSH1 0x0 SWAP1 POP JUMPDEST PUSH1 0x1 SLOAD DUP2 LT ISZERO PUSH2 0x530 JUMPI PUSH1 0x0 PUSH1 0x1 DUP3 DUP2 SLOAD DUP2 LT PUSH2 0x4F9 JUMPI PUSH2 0x4F9 PUSH2 0x842 JUMP JUMPDEST PUSH1 0x0 SWAP2 DUP3 MSTORE PUSH1 0x20 SWAP1 SWAP2 KECCAK256 ADD SLOAD PUSH1 0x1 PUSH1 0x1 PUSH1 0xA0 SHL SUB AND SWAP1 POP CALLER DUP2 EQ ISZERO PUSH2 0x51D JUMPI PUSH1 0x0 SWAP4 POP JUMPDEST POP DUP1 PUSH2 0x528 DUP2 PUSH2 0x858 JUMP JUMPDEST SWAP2 POP POP PUSH2 0x4DA JUMP JUMPDEST POP DUP2 PUSH1 0x1 EQ ISZERO PUSH2 0x57C JUMPI PUSH1 0x1 DUP1 SLOAD DUP1 DUP3 ADD DUP3 SSTORE PUSH1 0x0 SWAP2 SWAP1 SWAP2 MSTORE PUSH32 0xB10E2D527612073B26EECDFD717E6A320CF44B4AFAC2B0732D9FCBE2B7FA0CF6 ADD DUP1 SLOAD PUSH1 0x1 PUSH1 0x1 PUSH1 0xA0 SHL SUB NOT AND CALLER OR SWAP1 SSTORE JUMPDEST POP POP JUMP JUMPDEST CALLER PUSH1 0x0 SWAP1 DUP2 MSTORE PUSH1 0x4 PUSH1 0x20 MSTORE PUSH1 0x40 SWAP1 KECCAK256 SLOAD DUP2 GT ISZERO PUSH2 0x5D5 JUMPI PUSH1 0x40 MLOAD PUSH3 0x461BCD PUSH1 0xE5 SHL DUP2 MSTORE PUSH1 0x20 PUSH1 0x4 DUP3 ADD MSTORE PUSH1 0x13 PUSH1 0x24 DUP3 ADD MSTORE PUSH19 0x6E6F7420656E6F7567682062616C616E636573 PUSH1 0x68 SHL PUSH1 0x44 DUP3 ADD MSTORE PUSH1 0x64 ADD PUSH2 0x273 JUMP JUMPDEST CALLER PUSH1 0x1 PUSH1 0x1 PUSH1 0xA0 SHL SUB DUP4 AND EQ ISZERO PUSH2 0x624 JUMPI PUSH1 0x40 MLOAD PUSH3 0x461BCD PUSH1 0xE5 SHL DUP2 MSTORE PUSH1 0x20 PUSH1 0x4 DUP3 ADD MSTORE PUSH1 0x13 PUSH1 0x24 DUP3 ADD MSTORE PUSH19 0x6E6F7420656E6F7567682062616C616E636573 PUSH1 0x68 SHL PUSH1 0x44 DUP3 ADD MSTORE PUSH1 0x64 ADD PUSH2 0x273 JUMP JUMPDEST CALLER PUSH1 0x0 SWAP1 DUP2 MSTORE PUSH1 0x4 PUSH1 0x20 MSTORE PUSH1 0x40 DUP2 KECCAK256 DUP1 SLOAD DUP4 SWAP3 SWAP1 PUSH2 0x643 SWAP1 DUP5 SWAP1 PUSH2 0x97A JUMP JUMPDEST SWAP1 SWAP2 SSTORE POP POP PUSH1 0x1 PUSH1 0x1 PUSH1 0xA0 SHL SUB DUP3 AND PUSH1 0x0 SWAP1 DUP2 MSTORE PUSH1 0x4 PUSH1 0x20 MSTORE PUSH1 0x40 DUP2 KECCAK256 DUP1 SLOAD DUP4 SWAP3 SWAP1 PUSH2 0x670 SWAP1 DUP5 SWAP1 PUSH2 0x962 JUMP JUMPDEST SWAP1 SWAP2 SSTORE POP POP POP POP JUMP JUMPDEST PUSH1 0x1 DUP2 DUP2 SLOAD DUP2 LT PUSH2 0x689 JUMPI PUSH1 0x0 DUP1 REVERT JUMPDEST PUSH1 0x0 SWAP2 DUP3 MSTORE PUSH1 0x20 SWAP1 SWAP2 KECCAK256 ADD SLOAD PUSH1 0x1 PUSH1 0x1 PUSH1 0xA0 SHL SUB AND SWAP1 POP DUP2 JUMP JUMPDEST DUP3 DUP1 SLOAD DUP3 DUP3 SSTORE SWAP1 PUSH1 0x0 MSTORE PUSH1 0x20 PUSH1 0x0 KECCAK256 SWAP1 DUP2 ADD SWAP3 DUP3 ISZERO PUSH2 0x6F8 JUMPI SWAP2 PUSH1 0x20 MUL DUP3 ADD JUMPDEST DUP3 DUP2 GT ISZERO PUSH2 0x6F8 JUMPI DUP3 MLOAD DUP3 SLOAD PUSH1 0x1 PUSH1 0x1 PUSH1 0xA0 SHL SUB NOT AND PUSH1 0x1 PUSH1 0x1 PUSH1 0xA0 SHL SUB SWAP1 SWAP2 AND OR DUP3 SSTORE PUSH1 0x20 SWAP1 SWAP3 ADD SWAP2 PUSH1 0x1 SWAP1 SWAP2 ADD SWAP1 PUSH2 0x6C3 JUMP JUMPDEST POP PUSH2 0x704 SWAP3 SWAP2 POP PUSH2 0x708 JUMP JUMPDEST POP SWAP1 JUMP JUMPDEST JUMPDEST DUP1 DUP3 GT ISZERO PUSH2 0x704 JUMPI PUSH1 0x0 DUP2 SSTORE PUSH1 0x1 ADD PUSH2 0x709 JUMP JUMPDEST DUP1 CALLDATALOAD PUSH1 0x1 PUSH1 0x1 PUSH1 0xA0 SHL SUB DUP2 AND DUP2 EQ PUSH2 0x734 JUMPI PUSH1 0x0 DUP1 REVERT JUMPDEST SWAP2 SWAP1 POP JUMP JUMPDEST PUSH1 0x0 PUSH1 0x20 DUP3 DUP5 SUB SLT ISZERO PUSH2 0x74B JUMPI PUSH1 0x0 DUP1 REVERT JUMPDEST PUSH2 0x754 DUP3 PUSH2 0x71D JUMP JUMPDEST SWAP4 SWAP3 POP POP POP JUMP JUMPDEST PUSH1 0x0 PUSH1 0x20 DUP3 DUP5 SUB SLT ISZERO PUSH2 0x76D JUMPI PUSH1 0x0 DUP1 REVERT JUMPDEST POP CALLDATALOAD SWAP2 SWAP1 POP JUMP JUMPDEST PUSH1 0x20 DUP1 DUP3 MSTORE DUP3 MLOAD DUP3 DUP3 ADD DUP2 SWAP1 MSTORE PUSH1 0x0 SWAP2 SWAP1 DUP5 DUP3 ADD SWAP1 PUSH1 0x40 DUP6 ADD SWAP1 DUP5 JUMPDEST DUP2 DUP2 LT ISZERO PUSH2 0x7B5 JUMPI DUP4 MLOAD PUSH1 0x1 PUSH1 0x1 PUSH1 0xA0 SHL SUB AND DUP4 MSTORE SWAP3 DUP5 ADD SWAP3 SWAP2 DUP5 ADD SWAP2 PUSH1 0x1 ADD PUSH2 0x790 JUMP JUMPDEST POP SWAP1 SWAP7 SWAP6 POP POP POP POP POP POP JUMP JUMPDEST PUSH1 0x0 DUP1 PUSH1 0x40 DUP4 DUP6 SUB SLT ISZERO PUSH2 0x7D4 JUMPI PUSH1 0x0 DUP1 REVERT JUMPDEST PUSH2 0x7DD DUP4 PUSH2 0x71D JUMP JUMPDEST SWAP5 PUSH1 0x20 SWAP4 SWAP1 SWAP4 ADD CALLDATALOAD SWAP4 POP POP POP JUMP JUMPDEST PUSH4 0x4E487B71 PUSH1 0xE0 SHL PUSH1 0x0 MSTORE PUSH1 0x11 PUSH1 0x4 MSTORE PUSH1 0x24 PUSH1 0x0 REVERT JUMPDEST PUSH1 0x0 DUP2 PUSH1 0x0 NOT DIV DUP4 GT DUP3 ISZERO ISZERO AND ISZERO PUSH2 0x81B JUMPI PUSH2 0x81B PUSH2 0x7EB JUMP JUMPDEST POP MUL SWAP1 JUMP JUMPDEST PUSH1 0x0 DUP3 PUSH2 0x83D JUMPI PUSH4 0x4E487B71 PUSH1 0xE0 SHL PUSH1 0x0 MSTORE PUSH1 0x12 PUSH1 0x4 MSTORE PUSH1 0x24 PUSH1 0x0 REVERT JUMPDEST POP DIV SWAP1 JUMP JUMPDEST PUSH4 0x4E487B71 PUSH1 0xE0 SHL PUSH1 0x0 MSTORE PUSH1 0x32 PUSH1 0x4 MSTORE PUSH1 0x24 PUSH1 0x0 REVERT JUMPDEST PUSH1 0x0 PUSH1 0x0 NOT DUP3 EQ ISZERO PUSH2 0x86C JUMPI PUSH2 0x86C PUSH2 0x7EB JUMP JUMPDEST POP PUSH1 0x1 ADD SWAP1 JUMP JUMPDEST DUP1 MLOAD PUSH10 0xFFFFFFFFFFFFFFFFFFFF DUP2 AND DUP2 EQ PUSH2 0x734 JUMPI PUSH1 0x0 DUP1 REVERT JUMPDEST PUSH1 0x0 DUP1 PUSH1 0x0 DUP1 PUSH1 0x0 PUSH1 0xA0 DUP7 DUP9 SUB SLT ISZERO PUSH2 0x8A5 JUMPI PUSH1 0x0 DUP1 REVERT JUMPDEST PUSH2 0x8AE DUP7 PUSH2 0x873 JUMP JUMPDEST SWAP5 POP PUSH1 0x20 DUP7 ADD MLOAD SWAP4 POP PUSH1 0x40 DUP7 ADD MLOAD SWAP3 POP PUSH1 0x60 DUP7 ADD MLOAD SWAP2 POP PUSH2 0x8D1 PUSH1 0x80 DUP8 ADD PUSH2 0x873 JUMP JUMPDEST SWAP1 POP SWAP3 SWAP6 POP SWAP3 SWAP6 SWAP1 SWAP4 POP JUMP JUMPDEST PUSH1 0x0 PUSH1 0x1 PUSH1 0x1 PUSH1 0xFF SHL SUB DUP2 DUP5 SGT DUP3 DUP5 SGT DUP1 DUP3 AND DUP7 DUP5 DIV DUP7 GT AND ISZERO PUSH2 0x903 JUMPI PUSH2 0x903 PUSH2 0x7EB JUMP JUMPDEST PUSH1 0x1 PUSH1 0xFF SHL PUSH1 0x0 DUP8 SLT DUP3 DUP2 AND DUP8 DUP4 SDIV DUP10 SLT AND ISZERO PUSH2 0x922 JUMPI PUSH2 0x922 PUSH2 0x7EB JUMP JUMPDEST PUSH1 0x0 DUP8 SLT SWAP3 POP DUP8 DUP3 SDIV DUP8 SLT DUP5 DUP5 AND AND ISZERO PUSH2 0x93E JUMPI PUSH2 0x93E PUSH2 0x7EB JUMP JUMPDEST DUP8 DUP6 SDIV DUP8 SLT DUP2 DUP5 AND AND ISZERO PUSH2 0x954 JUMPI PUSH2 0x954 PUSH2 0x7EB JUMP JUMPDEST POP POP POP SWAP3 SWAP1 SWAP4 MUL SWAP4 SWAP3 POP POP POP JUMP JUMPDEST PUSH1 0x0 DUP3 NOT DUP3 GT ISZERO PUSH2 0x975 JUMPI PUSH2 0x975 PUSH2 0x7EB JUMP JUMPDEST POP ADD SWAP1 JUMP JUMPDEST PUSH1 0x0 DUP3 DUP3 LT ISZERO PUSH2 0x98C JUMPI PUSH2 0x98C PUSH2 0x7EB JUMP JUMPDEST POP SUB SWAP1 JUMP INVALID LOG2 PUSH5 0x6970667358 0x22 SLT KECCAK256 0xE8 PUSH31 0x14CF773FA6D1C9002245F26983278A1F09C0853FB1C4F193046D6598E94264 PUSH20 0x6F6C634300080A00330000000000000000000000 ","sha1":"15978d9acf1b79f2d4a3ce513f24d7f1def05b8e","source":"// SPDX-License-Identifier: MIT\npragma solidity >=0.6.6 <0.9.0;\nimport \"interfaces/AggregatorV3Interface.sol\";\n\ncontract SimpleBank {\n  address owner;\n  address[] public accounts;\n  uint256 public usdEntryFee;\n  AggregatorV3Interface public priceFeed;\n  mapping(address => uint256) public balances;\n\n  constructor(address _priceFeed) public {\n    priceFeed = AggregatorV3Interface(_priceFeed);\n    owner = msg.sender;\n    balances[msg.sender] = 1000;\n  }\n\n  function transfer(address receiver, uint256 amt) public {\n    require(balances[msg.sender] >= amt, \"not enough balances\");\n    require(msg.sender != receiver, \"not enough balances\");\n    balances[msg.sender] -= amt;\n    balances[receiver] += amt;\n  }\n\n  function getListAccountAndBalaces() public view returns(address[] memory){\n    return accounts;\n  }\n  function depositToSC() public payable {\n    uint flag = 1;\n    uint256 minimumUSD = 50 * 10**18;\n    require(\n      getConversionRate(msg.value) >= minimumUSD,\n      \"You need to donate more ETH!\"\n    );\n    balances[msg.sender] += msg.value;\n    // example\n    // addressToAmountFunded[0xab] = 1 ETH\n    // addressToAmountFunded[0xcd] = 1 ETH\n    for (uint256 i = 0; i < accounts.length; i++) {\n      address account = accounts[i];\n      if(account == msg.sender){\n        flag = 0;\n      }\n    }\n    if(flag == 1){\n      accounts.push(msg.sender);\n    }\n  }\n\n  // 10^18 eth -> USD\n  function getPrice() public view returns (uint256) {\n    (, int256 answer, , , ) = priceFeed.latestRoundData();\n    return uint256(answer * 10000000000);\n    // 4259 912137930 000000000\n  }\n\n  function getConversionRate(uint256 ethAmouth) public view returns (uint256) {\n    uint256 ethPrice = getPrice();\n    uint256 ethAmountInUsd = (ethPrice * ethAmouth) / 1000000000000000000;\n    return ethAmountInUsd;\n  }\n\n  // return EntraceFee (wei)\n  function getEntranceFee() public view returns (uint256) {\n    uint256 minimumUSD = 50 * 10**18;\n    uint256 price = getPrice();\n    uint256 precision = 10**18;\n    return (minimumUSD * precision) / price;\n  }\n\n  modifier onlyOwner() {\n    require(msg.sender == owner, \"you're not owner\");\n    _;\n  }\n\n  function withdraw() public payable onlyOwner {\n    payable(msg.sender).transfer(address(this).balance); // transfer from address(this) to msg.sender (address.this is this contract)\n    for (uint256 i = 0; i < accounts.length; i++) {\n      address account = accounts[i];\n      balances[account] = 0;\n    }\n    accounts = new address[](0);\n  }\n\n}\n","sourcePath":"contracts/SimpleBank.sol","deployment":{"address":"0x03A493F2B3649F204F4Caa1CbD2D863eac6eE4EB","chainid":"1337","blockHeight":135}}