{"abi":[{"inputs":[{"internalType":"address","name":"_priceFeed","type":"address"}],"stateMutability":"nonpayable","type":"constructor","name":"constructor"},{"inputs":[{"internalType":"uint256","name":"","type":"uint256"}],"name":"accounts","outputs":[{"internalType":"address payable","name":"","type":"address"}],"stateMutability":"view","type":"function"},{"inputs":[{"internalType":"address","name":"","type":"address"}],"name":"addressToAmountFunded","outputs":[{"internalType":"uint256","name":"","type":"uint256"}],"stateMutability":"view","type":"function"},{"inputs":[],"name":"fund","outputs":[],"stateMutability":"payable","type":"function"},{"inputs":[{"internalType":"uint256","name":"","type":"uint256"}],"name":"funders","outputs":[{"internalType":"address","name":"","type":"address"}],"stateMutability":"view","type":"function"},{"inputs":[{"internalType":"uint256","name":"ethAmouth","type":"uint256"}],"name":"getConversionRate","outputs":[{"internalType":"uint256","name":"","type":"uint256"}],"stateMutability":"view","type":"function"},{"inputs":[],"name":"getEntranceFee","outputs":[{"internalType":"uint256","name":"","type":"uint256"}],"stateMutability":"view","type":"function"},{"inputs":[],"name":"getPrice","outputs":[{"internalType":"uint256","name":"","type":"uint256"}],"stateMutability":"view","type":"function"},{"inputs":[],"name":"getVersion","outputs":[{"internalType":"uint256","name":"","type":"uint256"}],"stateMutability":"view","type":"function"},{"inputs":[],"name":"priceFeed","outputs":[{"internalType":"contract AggregatorV3Interface","name":"","type":"address"}],"stateMutability":"view","type":"function"},{"inputs":[{"internalType":"address","name":"receiver","type":"address"},{"internalType":"uint256","name":"amt","type":"uint256"}],"name":"transfer","outputs":[],"stateMutability":"nonpayable","type":"function"},{"inputs":[],"name":"usdEntryFee","outputs":[{"internalType":"uint256","name":"","type":"uint256"}],"stateMutability":"view","type":"function"},{"inputs":[],"name":"withdraw","outputs":[],"stateMutability":"payable","type":"function"}],"bytecode":"608060405234801561001057600080fd5b50604051610a17380380610a1783398101604081905261002f9161006f565b600480546001600160a01b039092166001600160a01b03199283161790556000805490911633908117825581526006602052604090206103e8905561009f565b60006020828403121561008157600080fd5b81516001600160a01b038116811461009857600080fd5b9392505050565b610969806100ae6000396000f3fe6080604052600436106100a75760003560e01c806388ab139a1161006457806388ab139a1461017857806398d5fdca1461018e578063a9059cbb146101a3578063b60d4288146101c3578063dc0d3dff146101cb578063f2a40db8146101eb57600080fd5b806309bc33a7146100ac5780630d8e6e2c146100d45780633ccfd60b146100e95780633e47d6f3146100f35780636e5b6b2814610120578063741bef1a14610140575b600080fd5b3480156100b857600080fd5b506100c161020b565b6040519081526020015b60405180910390f35b3480156100e057600080fd5b506100c1610248565b6100f16102c6565b005b3480156100ff57600080fd5b506100c161010e36600461070f565b60056020526000908152604090205481565b34801561012c57600080fd5b506100c161013b366004610731565b6103bd565b34801561014c57600080fd5b50600454610160906001600160a01b031681565b6040516001600160a01b0390911681526020016100cb565b34801561018457600080fd5b506100c160035481565b34801561019a57600080fd5b506100c16103f1565b3480156101af57600080fd5b506100f16101be36600461074a565b61047b565b6100f1610574565b3480156101d757600080fd5b506101606101e6366004610731565b61063f565b3480156101f757600080fd5b50610160610206366004610731565b610669565b60006802b5e3af16b1880000816102206103f1565b9050670de0b6b3a764000081610236828561078a565b61024091906107a9565b935050505090565b6000600460009054906101000a90046001600160a01b03166001600160a01b03166354fd4d506040518163ffffffff1660e01b8152600401602060405180830381865afa15801561029d573d6000803e3d6000fd5b505050506040513d601f19601f820116820180604052508101906102c191906107cb565b905090565b6000546001600160a01b031633146103185760405162461bcd60e51b815260206004820152601060248201526f3cb7ba93b932903737ba1037bbb732b960811b60448201526064015b60405180910390fd5b60405133904780156108fc02916000818181858888f19350505050158015610344573d6000803e3d6000fd5b5060005b60025481101561039c57600060028281548110610367576103676107e4565b60009182526020808320909101546001600160a01b031682526005905260408120555080610394816107fa565b915050610348565b5060408051600081526020810191829052516103ba91600291610679565b50565b6000806103c86103f1565b90506000670de0b6b3a76400006103df858461078a565b6103e991906107a9565b949350505050565b6004805460408051633fabe5a360e21b8152905160009384936001600160a01b03169263feaf968c928183019260a0928290030181865afa15801561043a573d6000803e3d6000fd5b505050506040513d601f19601f8201168201806040525081019061045e919061082f565b505050915050806402540be400610475919061087f565b91505090565b336000908152600660205260409020548111156104d05760405162461bcd60e51b81526020600482015260136024820152726e6f7420656e6f7567682062616c616e63657360681b604482015260640161030f565b336001600160a01b038316141561051f5760405162461bcd60e51b81526020600482015260136024820152726e6f7420656e6f7567682062616c616e63657360681b604482015260640161030f565b336000908152600660205260408120805483929061053e908490610904565b90915550506001600160a01b0382166000908152600660205260408120805483929061056b90849061091b565b90915550505050565b6802b5e3af16b188000080610588346103bd565b10156105d65760405162461bcd60e51b815260206004820152601c60248201527f596f75206e65656420746f20646f6e617465206d6f7265204554482100000000604482015260640161030f565b33600090815260056020526040812080543492906105f590849061091b565b9091555050600280546001810182556000919091527f405787fa12a823e0f2b7631cc41b3ba8828b3321ca811111fa75cd3aa3bb5ace0180546001600160a01b0319163317905550565b6002818154811061064f57600080fd5b6000918252602090912001546001600160a01b0316905081565b6001818154811061064f57600080fd5b8280548282559060005260206000209081019282156106ce579160200282015b828111156106ce57825182546001600160a01b0319166001600160a01b03909116178255602090920191600190910190610699565b506106da9291506106de565b5090565b5b808211156106da57600081556001016106df565b80356001600160a01b038116811461070a57600080fd5b919050565b60006020828403121561072157600080fd5b61072a826106f3565b9392505050565b60006020828403121561074357600080fd5b5035919050565b6000806040838503121561075d57600080fd5b610766836106f3565b946020939093013593505050565b634e487b7160e01b600052601160045260246000fd5b60008160001904831182151516156107a4576107a4610774565b500290565b6000826107c657634e487b7160e01b600052601260045260246000fd5b500490565b6000602082840312156107dd57600080fd5b5051919050565b634e487b7160e01b600052603260045260246000fd5b600060001982141561080e5761080e610774565b5060010190565b805169ffffffffffffffffffff8116811461070a57600080fd5b600080600080600060a0868803121561084757600080fd5b61085086610815565b945060208601519350604086015192506060860151915061087360808701610815565b90509295509295909350565b60006001600160ff1b03818413828413808216868404861116156108a5576108a5610774565b600160ff1b60008712828116878305891216156108c4576108c4610774565b600087129250878205871284841616156108e0576108e0610774565b878505871281841616156108f6576108f6610774565b505050929093029392505050565b60008282101561091657610916610774565b500390565b6000821982111561092e5761092e610774565b50019056fea2646970667358221220a83722e694cd2c7ba4eefc7b2f218dc0a1c0401c44ce5a1b41298cf7f0288d3364736f6c634300080a0033","bytecodeSha1":"3c0979188548c2bef50099ef24f8b92840538ac9","compiler":{"evm_version":"istanbul","optimizer":{"enabled":true,"runs":200},"version":"0.8.10+commit.fc410830"},"contractName":"SimpleBank","language":"Solidity","natspec":{"kind":"dev","methods":{},"version":1},"opcodes":"PUSH1 0x80 PUSH1 0x40 MSTORE PUSH1 0x4 CALLDATASIZE LT PUSH2 0xA7 JUMPI PUSH1 0x0 CALLDATALOAD PUSH1 0xE0 SHR DUP1 PUSH4 0x88AB139A GT PUSH2 0x64 JUMPI DUP1 PUSH4 0x88AB139A EQ PUSH2 0x178 JUMPI DUP1 PUSH4 0x98D5FDCA EQ PUSH2 0x18E JUMPI DUP1 PUSH4 0xA9059CBB EQ PUSH2 0x1A3 JUMPI DUP1 PUSH4 0xB60D4288 EQ PUSH2 0x1C3 JUMPI DUP1 PUSH4 0xDC0D3DFF EQ PUSH2 0x1CB JUMPI DUP1 PUSH4 0xF2A40DB8 EQ PUSH2 0x1EB JUMPI PUSH1 0x0 DUP1 REVERT JUMPDEST DUP1 PUSH4 0x9BC33A7 EQ PUSH2 0xAC JUMPI DUP1 PUSH4 0xD8E6E2C EQ PUSH2 0xD4 JUMPI DUP1 PUSH4 0x3CCFD60B EQ PUSH2 0xE9 JUMPI DUP1 PUSH4 0x3E47D6F3 EQ PUSH2 0xF3 JUMPI DUP1 PUSH4 0x6E5B6B28 EQ PUSH2 0x120 JUMPI DUP1 PUSH4 0x741BEF1A EQ PUSH2 0x140 JUMPI JUMPDEST PUSH1 0x0 DUP1 REVERT JUMPDEST CALLVALUE DUP1 ISZERO PUSH2 0xB8 JUMPI PUSH1 0x0 DUP1 REVERT JUMPDEST POP PUSH2 0xC1 PUSH2 0x20B JUMP JUMPDEST PUSH1 0x40 MLOAD SWAP1 DUP2 MSTORE PUSH1 0x20 ADD JUMPDEST PUSH1 0x40 MLOAD DUP1 SWAP2 SUB SWAP1 RETURN JUMPDEST CALLVALUE DUP1 ISZERO PUSH2 0xE0 JUMPI PUSH1 0x0 DUP1 REVERT JUMPDEST POP PUSH2 0xC1 PUSH2 0x248 JUMP JUMPDEST PUSH2 0xF1 PUSH2 0x2C6 JUMP JUMPDEST STOP JUMPDEST CALLVALUE DUP1 ISZERO PUSH2 0xFF JUMPI PUSH1 0x0 DUP1 REVERT JUMPDEST POP PUSH2 0xC1 PUSH2 0x10E CALLDATASIZE PUSH1 0x4 PUSH2 0x70F JUMP JUMPDEST PUSH1 0x5 PUSH1 0x20 MSTORE PUSH1 0x0 SWAP1 DUP2 MSTORE PUSH1 0x40 SWAP1 KECCAK256 SLOAD DUP2 JUMP JUMPDEST CALLVALUE DUP1 ISZERO PUSH2 0x12C JUMPI PUSH1 0x0 DUP1 REVERT JUMPDEST POP PUSH2 0xC1 PUSH2 0x13B CALLDATASIZE PUSH1 0x4 PUSH2 0x731 JUMP JUMPDEST PUSH2 0x3BD JUMP JUMPDEST CALLVALUE DUP1 ISZERO PUSH2 0x14C JUMPI PUSH1 0x0 DUP1 REVERT JUMPDEST POP PUSH1 0x4 SLOAD PUSH2 0x160 SWAP1 PUSH1 0x1 PUSH1 0x1 PUSH1 0xA0 SHL SUB AND DUP2 JUMP JUMPDEST PUSH1 0x40 MLOAD PUSH1 0x1 PUSH1 0x1 PUSH1 0xA0 SHL SUB SWAP1 SWAP2 AND DUP2 MSTORE PUSH1 0x20 ADD PUSH2 0xCB JUMP JUMPDEST CALLVALUE DUP1 ISZERO PUSH2 0x184 JUMPI PUSH1 0x0 DUP1 REVERT JUMPDEST POP PUSH2 0xC1 PUSH1 0x3 SLOAD DUP2 JUMP JUMPDEST CALLVALUE DUP1 ISZERO PUSH2 0x19A JUMPI PUSH1 0x0 DUP1 REVERT JUMPDEST POP PUSH2 0xC1 PUSH2 0x3F1 JUMP JUMPDEST CALLVALUE DUP1 ISZERO PUSH2 0x1AF JUMPI PUSH1 0x0 DUP1 REVERT JUMPDEST POP PUSH2 0xF1 PUSH2 0x1BE CALLDATASIZE PUSH1 0x4 PUSH2 0x74A JUMP JUMPDEST PUSH2 0x47B JUMP JUMPDEST PUSH2 0xF1 PUSH2 0x574 JUMP JUMPDEST CALLVALUE DUP1 ISZERO PUSH2 0x1D7 JUMPI PUSH1 0x0 DUP1 REVERT JUMPDEST POP PUSH2 0x160 PUSH2 0x1E6 CALLDATASIZE PUSH1 0x4 PUSH2 0x731 JUMP JUMPDEST PUSH2 0x63F JUMP JUMPDEST CALLVALUE DUP1 ISZERO PUSH2 0x1F7 JUMPI PUSH1 0x0 DUP1 REVERT JUMPDEST POP PUSH2 0x160 PUSH2 0x206 CALLDATASIZE PUSH1 0x4 PUSH2 0x731 JUMP JUMPDEST PUSH2 0x669 JUMP JUMPDEST PUSH1 0x0 PUSH9 0x2B5E3AF16B1880000 DUP2 PUSH2 0x220 PUSH2 0x3F1 JUMP JUMPDEST SWAP1 POP PUSH8 0xDE0B6B3A7640000 DUP2 PUSH2 0x236 DUP3 DUP6 PUSH2 0x78A JUMP JUMPDEST PUSH2 0x240 SWAP2 SWAP1 PUSH2 0x7A9 JUMP JUMPDEST SWAP4 POP POP POP POP SWAP1 JUMP JUMPDEST PUSH1 0x0 PUSH1 0x4 PUSH1 0x0 SWAP1 SLOAD SWAP1 PUSH2 0x100 EXP SWAP1 DIV PUSH1 0x1 PUSH1 0x1 PUSH1 0xA0 SHL SUB AND PUSH1 0x1 PUSH1 0x1 PUSH1 0xA0 SHL SUB AND PUSH4 0x54FD4D50 PUSH1 0x40 MLOAD DUP2 PUSH4 0xFFFFFFFF AND PUSH1 0xE0 SHL DUP2 MSTORE PUSH1 0x4 ADD PUSH1 0x20 PUSH1 0x40 MLOAD DUP1 DUP4 SUB DUP2 DUP7 GAS STATICCALL ISZERO DUP1 ISZERO PUSH2 0x29D JUMPI RETURNDATASIZE PUSH1 0x0 DUP1 RETURNDATACOPY RETURNDATASIZE PUSH1 0x0 REVERT JUMPDEST POP POP POP POP PUSH1 0x40 MLOAD RETURNDATASIZE PUSH1 0x1F NOT PUSH1 0x1F DUP3 ADD AND DUP3 ADD DUP1 PUSH1 0x40 MSTORE POP DUP2 ADD SWAP1 PUSH2 0x2C1 SWAP2 SWAP1 PUSH2 0x7CB JUMP JUMPDEST SWAP1 POP SWAP1 JUMP JUMPDEST PUSH1 0x0 SLOAD PUSH1 0x1 PUSH1 0x1 PUSH1 0xA0 SHL SUB AND CALLER EQ PUSH2 0x318 JUMPI PUSH1 0x40 MLOAD PUSH3 0x461BCD PUSH1 0xE5 SHL DUP2 MSTORE PUSH1 0x20 PUSH1 0x4 DUP3 ADD MSTORE PUSH1 0x10 PUSH1 0x24 DUP3 ADD MSTORE PUSH16 0x3CB7BA93B932903737BA1037BBB732B9 PUSH1 0x81 SHL PUSH1 0x44 DUP3 ADD MSTORE PUSH1 0x64 ADD JUMPDEST PUSH1 0x40 MLOAD DUP1 SWAP2 SUB SWAP1 REVERT JUMPDEST PUSH1 0x40 MLOAD CALLER SWAP1 SELFBALANCE DUP1 ISZERO PUSH2 0x8FC MUL SWAP2 PUSH1 0x0 DUP2 DUP2 DUP2 DUP6 DUP9 DUP9 CALL SWAP4 POP POP POP POP ISZERO DUP1 ISZERO PUSH2 0x344 JUMPI RETURNDATASIZE PUSH1 0x0 DUP1 RETURNDATACOPY RETURNDATASIZE PUSH1 0x0 REVERT JUMPDEST POP PUSH1 0x0 JUMPDEST PUSH1 0x2 SLOAD DUP2 LT ISZERO PUSH2 0x39C JUMPI PUSH1 0x0 PUSH1 0x2 DUP3 DUP2 SLOAD DUP2 LT PUSH2 0x367 JUMPI PUSH2 0x367 PUSH2 0x7E4 JUMP JUMPDEST PUSH1 0x0 SWAP2 DUP3 MSTORE PUSH1 0x20 DUP1 DUP4 KECCAK256 SWAP1 SWAP2 ADD SLOAD PUSH1 0x1 PUSH1 0x1 PUSH1 0xA0 SHL SUB AND DUP3 MSTORE PUSH1 0x5 SWAP1 MSTORE PUSH1 0x40 DUP2 KECCAK256 SSTORE POP DUP1 PUSH2 0x394 DUP2 PUSH2 0x7FA JUMP JUMPDEST SWAP2 POP POP PUSH2 0x348 JUMP JUMPDEST POP PUSH1 0x40 DUP1 MLOAD PUSH1 0x0 DUP2 MSTORE PUSH1 0x20 DUP2 ADD SWAP2 DUP3 SWAP1 MSTORE MLOAD PUSH2 0x3BA SWAP2 PUSH1 0x2 SWAP2 PUSH2 0x679 JUMP JUMPDEST POP JUMP JUMPDEST PUSH1 0x0 DUP1 PUSH2 0x3C8 PUSH2 0x3F1 JUMP JUMPDEST SWAP1 POP PUSH1 0x0 PUSH8 0xDE0B6B3A7640000 PUSH2 0x3DF DUP6 DUP5 PUSH2 0x78A JUMP JUMPDEST PUSH2 0x3E9 SWAP2 SWAP1 PUSH2 0x7A9 JUMP JUMPDEST SWAP5 SWAP4 POP POP POP POP JUMP JUMPDEST PUSH1 0x4 DUP1 SLOAD PUSH1 0x40 DUP1 MLOAD PUSH4 0x3FABE5A3 PUSH1 0xE2 SHL DUP2 MSTORE SWAP1 MLOAD PUSH1 0x0 SWAP4 DUP5 SWAP4 PUSH1 0x1 PUSH1 0x1 PUSH1 0xA0 SHL SUB AND SWAP3 PUSH4 0xFEAF968C SWAP3 DUP2 DUP4 ADD SWAP3 PUSH1 0xA0 SWAP3 DUP3 SWAP1 SUB ADD DUP2 DUP7 GAS STATICCALL ISZERO DUP1 ISZERO PUSH2 0x43A JUMPI RETURNDATASIZE PUSH1 0x0 DUP1 RETURNDATACOPY RETURNDATASIZE PUSH1 0x0 REVERT JUMPDEST POP POP POP POP PUSH1 0x40 MLOAD RETURNDATASIZE PUSH1 0x1F NOT PUSH1 0x1F DUP3 ADD AND DUP3 ADD DUP1 PUSH1 0x40 MSTORE POP DUP2 ADD SWAP1 PUSH2 0x45E SWAP2 SWAP1 PUSH2 0x82F JUMP JUMPDEST POP POP POP SWAP2 POP POP DUP1 PUSH5 0x2540BE400 PUSH2 0x475 SWAP2 SWAP1 PUSH2 0x87F JUMP JUMPDEST SWAP2 POP POP SWAP1 JUMP JUMPDEST CALLER PUSH1 0x0 SWAP1 DUP2 MSTORE PUSH1 0x6 PUSH1 0x20 MSTORE PUSH1 0x40 SWAP1 KECCAK256 SLOAD DUP2 GT ISZERO PUSH2 0x4D0 JUMPI PUSH1 0x40 MLOAD PUSH3 0x461BCD PUSH1 0xE5 SHL DUP2 MSTORE PUSH1 0x20 PUSH1 0x4 DUP3 ADD MSTORE PUSH1 0x13 PUSH1 0x24 DUP3 ADD MSTORE PUSH19 0x6E6F7420656E6F7567682062616C616E636573 PUSH1 0x68 SHL PUSH1 0x44 DUP3 ADD MSTORE PUSH1 0x64 ADD PUSH2 0x30F JUMP JUMPDEST CALLER PUSH1 0x1 PUSH1 0x1 PUSH1 0xA0 SHL SUB DUP4 AND EQ ISZERO PUSH2 0x51F JUMPI PUSH1 0x40 MLOAD PUSH3 0x461BCD PUSH1 0xE5 SHL DUP2 MSTORE PUSH1 0x20 PUSH1 0x4 DUP3 ADD MSTORE PUSH1 0x13 PUSH1 0x24 DUP3 ADD MSTORE PUSH19 0x6E6F7420656E6F7567682062616C616E636573 PUSH1 0x68 SHL PUSH1 0x44 DUP3 ADD MSTORE PUSH1 0x64 ADD PUSH2 0x30F JUMP JUMPDEST CALLER PUSH1 0x0 SWAP1 DUP2 MSTORE PUSH1 0x6 PUSH1 0x20 MSTORE PUSH1 0x40 DUP2 KECCAK256 DUP1 SLOAD DUP4 SWAP3 SWAP1 PUSH2 0x53E SWAP1 DUP5 SWAP1 PUSH2 0x904 JUMP JUMPDEST SWAP1 SWAP2 SSTORE POP POP PUSH1 0x1 PUSH1 0x1 PUSH1 0xA0 SHL SUB DUP3 AND PUSH1 0x0 SWAP1 DUP2 MSTORE PUSH1 0x6 PUSH1 0x20 MSTORE PUSH1 0x40 DUP2 KECCAK256 DUP1 SLOAD DUP4 SWAP3 SWAP1 PUSH2 0x56B SWAP1 DUP5 SWAP1 PUSH2 0x91B JUMP JUMPDEST SWAP1 SWAP2 SSTORE POP POP POP POP JUMP JUMPDEST PUSH9 0x2B5E3AF16B1880000 DUP1 PUSH2 0x588 CALLVALUE PUSH2 0x3BD JUMP JUMPDEST LT ISZERO PUSH2 0x5D6 JUMPI PUSH1 0x40 MLOAD PUSH3 0x461BCD PUSH1 0xE5 SHL DUP2 MSTORE PUSH1 0x20 PUSH1 0x4 DUP3 ADD MSTORE PUSH1 0x1C PUSH1 0x24 DUP3 ADD MSTORE PUSH32 0x596F75206E65656420746F20646F6E617465206D6F7265204554482100000000 PUSH1 0x44 DUP3 ADD MSTORE PUSH1 0x64 ADD PUSH2 0x30F JUMP JUMPDEST CALLER PUSH1 0x0 SWAP1 DUP2 MSTORE PUSH1 0x5 PUSH1 0x20 MSTORE PUSH1 0x40 DUP2 KECCAK256 DUP1 SLOAD CALLVALUE SWAP3 SWAP1 PUSH2 0x5F5 SWAP1 DUP5 SWAP1 PUSH2 0x91B JUMP JUMPDEST SWAP1 SWAP2 SSTORE POP POP PUSH1 0x2 DUP1 SLOAD PUSH1 0x1 DUP2 ADD DUP3 SSTORE PUSH1 0x0 SWAP2 SWAP1 SWAP2 MSTORE PUSH32 0x405787FA12A823E0F2B7631CC41B3BA8828B3321CA811111FA75CD3AA3BB5ACE ADD DUP1 SLOAD PUSH1 0x1 PUSH1 0x1 PUSH1 0xA0 SHL SUB NOT AND CALLER OR SWAP1 SSTORE POP JUMP JUMPDEST PUSH1 0x2 DUP2 DUP2 SLOAD DUP2 LT PUSH2 0x64F JUMPI PUSH1 0x0 DUP1 REVERT JUMPDEST PUSH1 0x0 SWAP2 DUP3 MSTORE PUSH1 0x20 SWAP1 SWAP2 KECCAK256 ADD SLOAD PUSH1 0x1 PUSH1 0x1 PUSH1 0xA0 SHL SUB AND SWAP1 POP DUP2 JUMP JUMPDEST PUSH1 0x1 DUP2 DUP2 SLOAD DUP2 LT PUSH2 0x64F JUMPI PUSH1 0x0 DUP1 REVERT JUMPDEST DUP3 DUP1 SLOAD DUP3 DUP3 SSTORE SWAP1 PUSH1 0x0 MSTORE PUSH1 0x20 PUSH1 0x0 KECCAK256 SWAP1 DUP2 ADD SWAP3 DUP3 ISZERO PUSH2 0x6CE JUMPI SWAP2 PUSH1 0x20 MUL DUP3 ADD JUMPDEST DUP3 DUP2 GT ISZERO PUSH2 0x6CE JUMPI DUP3 MLOAD DUP3 SLOAD PUSH1 0x1 PUSH1 0x1 PUSH1 0xA0 SHL SUB NOT AND PUSH1 0x1 PUSH1 0x1 PUSH1 0xA0 SHL SUB SWAP1 SWAP2 AND OR DUP3 SSTORE PUSH1 0x20 SWAP1 SWAP3 ADD SWAP2 PUSH1 0x1 SWAP1 SWAP2 ADD SWAP1 PUSH2 0x699 JUMP JUMPDEST POP PUSH2 0x6DA SWAP3 SWAP2 POP PUSH2 0x6DE JUMP JUMPDEST POP SWAP1 JUMP JUMPDEST JUMPDEST DUP1 DUP3 GT ISZERO PUSH2 0x6DA JUMPI PUSH1 0x0 DUP2 SSTORE PUSH1 0x1 ADD PUSH2 0x6DF JUMP JUMPDEST DUP1 CALLDATALOAD PUSH1 0x1 PUSH1 0x1 PUSH1 0xA0 SHL SUB DUP2 AND DUP2 EQ PUSH2 0x70A JUMPI PUSH1 0x0 DUP1 REVERT JUMPDEST SWAP2 SWAP1 POP JUMP JUMPDEST PUSH1 0x0 PUSH1 0x20 DUP3 DUP5 SUB SLT ISZERO PUSH2 0x721 JUMPI PUSH1 0x0 DUP1 REVERT JUMPDEST PUSH2 0x72A DUP3 PUSH2 0x6F3 JUMP JUMPDEST SWAP4 SWAP3 POP POP POP JUMP JUMPDEST PUSH1 0x0 PUSH1 0x20 DUP3 DUP5 SUB SLT ISZERO PUSH2 0x743 JUMPI PUSH1 0x0 DUP1 REVERT JUMPDEST POP CALLDATALOAD SWAP2 SWAP1 POP JUMP JUMPDEST PUSH1 0x0 DUP1 PUSH1 0x40 DUP4 DUP6 SUB SLT ISZERO PUSH2 0x75D JUMPI PUSH1 0x0 DUP1 REVERT JUMPDEST PUSH2 0x766 DUP4 PUSH2 0x6F3 JUMP JUMPDEST SWAP5 PUSH1 0x20 SWAP4 SWAP1 SWAP4 ADD CALLDATALOAD SWAP4 POP POP POP JUMP JUMPDEST PUSH4 0x4E487B71 PUSH1 0xE0 SHL PUSH1 0x0 MSTORE PUSH1 0x11 PUSH1 0x4 MSTORE PUSH1 0x24 PUSH1 0x0 REVERT JUMPDEST PUSH1 0x0 DUP2 PUSH1 0x0 NOT DIV DUP4 GT DUP3 ISZERO ISZERO AND ISZERO PUSH2 0x7A4 JUMPI PUSH2 0x7A4 PUSH2 0x774 JUMP JUMPDEST POP MUL SWAP1 JUMP JUMPDEST PUSH1 0x0 DUP3 PUSH2 0x7C6 JUMPI PUSH4 0x4E487B71 PUSH1 0xE0 SHL PUSH1 0x0 MSTORE PUSH1 0x12 PUSH1 0x4 MSTORE PUSH1 0x24 PUSH1 0x0 REVERT JUMPDEST POP DIV SWAP1 JUMP JUMPDEST PUSH1 0x0 PUSH1 0x20 DUP3 DUP5 SUB SLT ISZERO PUSH2 0x7DD JUMPI PUSH1 0x0 DUP1 REVERT JUMPDEST POP MLOAD SWAP2 SWAP1 POP JUMP JUMPDEST PUSH4 0x4E487B71 PUSH1 0xE0 SHL PUSH1 0x0 MSTORE PUSH1 0x32 PUSH1 0x4 MSTORE PUSH1 0x24 PUSH1 0x0 REVERT JUMPDEST PUSH1 0x0 PUSH1 0x0 NOT DUP3 EQ ISZERO PUSH2 0x80E JUMPI PUSH2 0x80E PUSH2 0x774 JUMP JUMPDEST POP PUSH1 0x1 ADD SWAP1 JUMP JUMPDEST DUP1 MLOAD PUSH10 0xFFFFFFFFFFFFFFFFFFFF DUP2 AND DUP2 EQ PUSH2 0x70A JUMPI PUSH1 0x0 DUP1 REVERT JUMPDEST PUSH1 0x0 DUP1 PUSH1 0x0 DUP1 PUSH1 0x0 PUSH1 0xA0 DUP7 DUP9 SUB SLT ISZERO PUSH2 0x847 JUMPI PUSH1 0x0 DUP1 REVERT JUMPDEST PUSH2 0x850 DUP7 PUSH2 0x815 JUMP JUMPDEST SWAP5 POP PUSH1 0x20 DUP7 ADD MLOAD SWAP4 POP PUSH1 0x40 DUP7 ADD MLOAD SWAP3 POP PUSH1 0x60 DUP7 ADD MLOAD SWAP2 POP PUSH2 0x873 PUSH1 0x80 DUP8 ADD PUSH2 0x815 JUMP JUMPDEST SWAP1 POP SWAP3 SWAP6 POP SWAP3 SWAP6 SWAP1 SWAP4 POP JUMP JUMPDEST PUSH1 0x0 PUSH1 0x1 PUSH1 0x1 PUSH1 0xFF SHL SUB DUP2 DUP5 SGT DUP3 DUP5 SGT DUP1 DUP3 AND DUP7 DUP5 DIV DUP7 GT AND ISZERO PUSH2 0x8A5 JUMPI PUSH2 0x8A5 PUSH2 0x774 JUMP JUMPDEST PUSH1 0x1 PUSH1 0xFF SHL PUSH1 0x0 DUP8 SLT DUP3 DUP2 AND DUP8 DUP4 SDIV DUP10 SLT AND ISZERO PUSH2 0x8C4 JUMPI PUSH2 0x8C4 PUSH2 0x774 JUMP JUMPDEST PUSH1 0x0 DUP8 SLT SWAP3 POP DUP8 DUP3 SDIV DUP8 SLT DUP5 DUP5 AND AND ISZERO PUSH2 0x8E0 JUMPI PUSH2 0x8E0 PUSH2 0x774 JUMP JUMPDEST DUP8 DUP6 SDIV DUP8 SLT DUP2 DUP5 AND AND ISZERO PUSH2 0x8F6 JUMPI PUSH2 0x8F6 PUSH2 0x774 JUMP JUMPDEST POP POP POP SWAP3 SWAP1 SWAP4 MUL SWAP4 SWAP3 POP POP POP JUMP JUMPDEST PUSH1 0x0 DUP3 DUP3 LT ISZERO PUSH2 0x916 JUMPI PUSH2 0x916 PUSH2 0x774 JUMP JUMPDEST POP SUB SWAP1 JUMP JUMPDEST PUSH1 0x0 DUP3 NOT DUP3 GT ISZERO PUSH2 0x92E JUMPI PUSH2 0x92E PUSH2 0x774 JUMP JUMPDEST POP ADD SWAP1 JUMP INVALID LOG2 PUSH5 0x6970667358 0x22 SLT KECCAK256 0xA8 CALLDATACOPY 0x22 0xE6 SWAP5 0xCD 0x2C PUSH28 0xA4EEFC7B2F218DC0A1C0401C44CE5A1B41298CF7F0288D3364736F6C PUSH4 0x4300080A STOP CALLER ","sha1":"555fece2dd1b099adf7076df8e9663ab9fb9f7fc","source":"// SPDX-License-Identifier: MIT\npragma solidity >=0.6.6 <0.9.0;\nimport \"interfaces/AggregatorV3Interface.sol\";\n\ncontract SimpleBank {\n  address owner;\n  address payable[] public accounts;\n  address[] public funders;\n  uint256 public usdEntryFee;\n  AggregatorV3Interface public priceFeed;\n  mapping(address => uint256) public addressToAmountFunded;\n\n  mapping(address => uint256) balances;\n\n  constructor(address _priceFeed) public {\n    priceFeed = AggregatorV3Interface(_priceFeed);\n    owner = msg.sender;\n    balances[msg.sender] = 1000;\n  }\n\n  function transfer(address receiver, uint256 amt) public {\n    require(balances[msg.sender] >= amt, \"not enough balances\");\n    require(msg.sender != receiver, \"not enough balances\");\n    balances[msg.sender] -= amt;\n    balances[receiver] += amt;\n  }\n\n  function fund() public payable {\n    uint256 minimumUSD = 50 * 10**18;\n    require(\n      getConversionRate(msg.value) >= minimumUSD,\n      \"You need to donate more ETH!\"\n    );\n    addressToAmountFunded[msg.sender] += msg.value;\n    funders.push(msg.sender);\n  }\n\n  function getVersion() public view returns (uint256) {\n    return priceFeed.version();\n  }\n\n  // 10^18 eth -> USD\n  function getPrice() public view returns (uint256) {\n    (, int256 answer, , , ) = priceFeed.latestRoundData();\n    return uint256(answer * 10000000000);\n    // 4259 912137930 000000000\n  }\n\n  function getConversionRate(uint256 ethAmouth) public view returns (uint256) {\n    uint256 ethPrice = getPrice();\n    uint256 ethAmountInUsd = (ethPrice * ethAmouth) / 1000000000000000000;\n    return ethAmountInUsd;\n  }\n\n  // return EntraceFee (wei)\n  function getEntranceFee() public view returns (uint256) {\n    uint256 minimumUSD = 50 * 10**18;\n    uint256 price = getPrice();\n    uint256 precision = 10**18;\n    return (minimumUSD * precision) / price;\n  }\n\n  modifier onlyOwner() {\n    require(msg.sender == owner, \"you're not owner\");\n    _;\n  }\n\n  function withdraw() public payable onlyOwner {\n    payable(msg.sender).transfer(address(this).balance);\n    for (uint256 i = 0; i < funders.length; i++) {\n      address funder = funders[i];\n      addressToAmountFunded[funder] = 0;\n    }\n    funders = new address[](0);\n  }\n\n}\n","sourcePath":"contracts/SimpleBank.sol","type":"contract","deployment":{"address":"0xC43502edB2f533BA120738CA0811F8E0d21ED277","chainid":"1337","blockHeight":36}}